{
  "_format": "hh-sol-artifact-1",
  "contractName": "CryptoLinks",
  "sourceName": "contracts/CryptoLinks.sol",
  "abi": [
    {
      "inputs": [],
      "stateMutability": "nonpayable",
      "type": "constructor"
    },
    {
      "inputs": [],
      "name": "getAllLinks",
      "outputs": [
        {
          "components": [
            {
              "internalType": "address",
              "name": "sender",
              "type": "address"
            },
            {
              "internalType": "string",
              "name": "link",
              "type": "string"
            },
            {
              "internalType": "string",
              "name": "message",
              "type": "string"
            },
            {
              "internalType": "uint256",
              "name": "timestamp",
              "type": "uint256"
            }
          ],
          "internalType": "struct CryptoLinks.Link[]",
          "name": "",
          "type": "tuple[]"
        }
      ],
      "stateMutability": "view",
      "type": "function"
    },
    {
      "inputs": [
        {
          "internalType": "string",
          "name": "_link",
          "type": "string"
        },
        {
          "internalType": "string",
          "name": "_message",
          "type": "string"
        }
      ],
      "name": "post",
      "outputs": [],
      "stateMutability": "nonpayable",
      "type": "function"
    }
  ],
  "bytecode": "0x608060405234801561001057600080fd5b506100596040518060400160405280601e81526020017f436f6e747261637420686173206265656e20636f6e737472756374656421000081525061005e60201b61038a1760201c565b6101e1565b6100fa81604051602401610072919061015f565b6040516020818303038152906040527f41304fac000000000000000000000000000000000000000000000000000000007bffffffffffffffffffffffffffffffffffffffffffffffffffffffff19166020820180517bffffffffffffffffffffffffffffffffffffffffffffffffffffffff83818316178352505050506100fd60201b60201c565b50565b60008151905060006a636f6e736f6c652e6c6f679050602083016000808483855afa5050505050565b600061013182610181565b61013b818561018c565b935061014b81856020860161019d565b610154816101d0565b840191505092915050565b600060208201905081810360008301526101798184610126565b905092915050565b600081519050919050565b600082825260208201905092915050565b60005b838110156101bb5780820151818401526020810190506101a0565b838111156101ca576000848401525b50505050565b6000601f19601f8301169050919050565b610aa7806101f06000396000f3fe608060405234801561001057600080fd5b50600436106100365760003560e01c80630ae1b13d1461003b57806348d9cb9414610057575b600080fd5b610055600480360381019061005091906105f3565b610075565b005b61005f6101a7565b60405161006c91906107f1565b60405180910390f35b6100b46040518060400160405280600e81526020017f25732068617320706f737465642100000000000000000000000000000000000081525033610423565b600060405180608001604052803373ffffffffffffffffffffffffffffffffffffffff16815260200184815260200183815260200142815250908060018154018082558091505060019003906000526020600020906004020160009091909190915060008201518160000160006101000a81548173ffffffffffffffffffffffffffffffffffffffff021916908373ffffffffffffffffffffffffffffffffffffffff16021790555060208201518160010190805190602001906101799291906104e8565b5060408201518160020190805190602001906101969291906104e8565b506060820151816003015550505050565b60606000805480602002602001604051908101604052809291908181526020016000905b8282101561038157838290600052602060002090600402016040518060800160405290816000820160009054906101000a900473ffffffffffffffffffffffffffffffffffffffff1673ffffffffffffffffffffffffffffffffffffffff1673ffffffffffffffffffffffffffffffffffffffff1681526020016001820180546102549061099f565b80601f01602080910402602001604051908101604052809291908181526020018280546102809061099f565b80156102cd5780601f106102a2576101008083540402835291602001916102cd565b820191906000526020600020905b8154815290600101906020018083116102b057829003601f168201915b505050505081526020016002820180546102e69061099f565b80601f01602080910402602001604051908101604052809291908181526020018280546103129061099f565b801561035f5780601f106103345761010080835404028352916020019161035f565b820191906000526020600020905b81548152906001019060200180831161034257829003601f168201915b50505050508152602001600382015481525050815260200190600101906101cb565b50505050905090565b6104208160405160240161039e9190610813565b6040516020818303038152906040527f41304fac000000000000000000000000000000000000000000000000000000007bffffffffffffffffffffffffffffffffffffffffffffffffffffffff19166020820180517bffffffffffffffffffffffffffffffffffffffffffffffffffffffff83818316178352505050506104bf565b50565b6104bb8282604051602401610439929190610835565b6040516020818303038152906040527f319af333000000000000000000000000000000000000000000000000000000007bffffffffffffffffffffffffffffffffffffffffffffffffffffffff19166020820180517bffffffffffffffffffffffffffffffffffffffffffffffffffffffff83818316178352505050506104bf565b5050565b60008151905060006a636f6e736f6c652e6c6f679050602083016000808483855afa5050505050565b8280546104f49061099f565b90600052602060002090601f016020900481019282610516576000855561055d565b82601f1061052f57805160ff191683800117855561055d565b8280016001018555821561055d579182015b8281111561055c578251825591602001919060010190610541565b5b50905061056a919061056e565b5090565b5b8082111561058757600081600090555060010161056f565b5090565b600061059e6105998461088a565b610865565b9050828152602081018484840111156105b657600080fd5b6105c184828561095d565b509392505050565b600082601f8301126105da57600080fd5b81356105ea84826020860161058b565b91505092915050565b6000806040838503121561060657600080fd5b600083013567ffffffffffffffff81111561062057600080fd5b61062c858286016105c9565b925050602083013567ffffffffffffffff81111561064957600080fd5b610655858286016105c9565b9150509250929050565b600061066b8383610778565b905092915050565b61067c81610921565b82525050565b61068b81610921565b82525050565b600061069c826108cb565b6106a681856108ee565b9350836020820285016106b8856108bb565b8060005b858110156106f457848403895281516106d5858261065f565b94506106e0836108e1565b925060208a019950506001810190506106bc565b50829750879550505050505092915050565b6000610711826108d6565b61071b81856108ff565b935061072b81856020860161096c565b61073481610a60565b840191505092915050565b600061074a826108d6565b6107548185610910565b935061076481856020860161096c565b61076d81610a60565b840191505092915050565b60006080830160008301516107906000860182610673565b50602083015184820360208601526107a88282610706565b915050604083015184820360408601526107c28282610706565b91505060608301516107d760608601826107e2565b508091505092915050565b6107eb81610953565b82525050565b6000602082019050818103600083015261080b8184610691565b905092915050565b6000602082019050818103600083015261082d818461073f565b905092915050565b6000604082019050818103600083015261084f818561073f565b905061085e6020830184610682565b9392505050565b600061086f610880565b905061087b82826109d1565b919050565b6000604051905090565b600067ffffffffffffffff8211156108a5576108a4610a31565b5b6108ae82610a60565b9050602081019050919050565b6000819050602082019050919050565b600081519050919050565b600081519050919050565b6000602082019050919050565b600082825260208201905092915050565b600082825260208201905092915050565b600082825260208201905092915050565b600061092c82610933565b9050919050565b600073ffffffffffffffffffffffffffffffffffffffff82169050919050565b6000819050919050565b82818337600083830152505050565b60005b8381101561098a57808201518184015260208101905061096f565b83811115610999576000848401525b50505050565b600060028204905060018216806109b757607f821691505b602082108114156109cb576109ca610a02565b5b50919050565b6109da82610a60565b810181811067ffffffffffffffff821117156109f9576109f8610a31565b5b80604052505050565b7f4e487b7100000000000000000000000000000000000000000000000000000000600052602260045260246000fd5b7f4e487b7100000000000000000000000000000000000000000000000000000000600052604160045260246000fd5b6000601f19601f830116905091905056fea26469706673582212203b13a708de4db10c9715c159883501c27939ff42a6f3263b43ffb476f70ae69564736f6c63430008040033",
  "linkReferences": {},
  "deployedLinkReferences": {}
}