{
  "_format": "hh-sol-artifact-1",
  "contractName": "WavePortal",
  "sourceName": "contracts/WavePortal.sol",
  "abi": [
    {
      "inputs": [],
      "stateMutability": "payable",
      "type": "constructor"
    },
    {
      "anonymous": false,
      "inputs": [
        {
          "indexed": true,
          "internalType": "address",
          "name": "from",
          "type": "address"
        },
        {
          "indexed": false,
          "internalType": "uint256",
          "name": "timestamp",
          "type": "uint256"
        },
        {
          "indexed": false,
          "internalType": "string",
          "name": "message",
          "type": "string"
        }
      ],
      "name": "NewWave",
      "type": "event"
    },
    {
      "inputs": [],
      "name": "getAllWaves",
      "outputs": [
        {
          "components": [
            {
              "internalType": "address",
              "name": "waver",
              "type": "address"
            },
            {
              "internalType": "string",
              "name": "message",
              "type": "string"
            },
            {
              "internalType": "uint256",
              "name": "timestamp",
              "type": "uint256"
            }
          ],
          "internalType": "struct WavePortal.Wave[]",
          "name": "",
          "type": "tuple[]"
        }
      ],
      "stateMutability": "view",
      "type": "function"
    },
    {
      "inputs": [],
      "name": "getTotalWaves",
      "outputs": [
        {
          "internalType": "uint256",
          "name": "",
          "type": "uint256"
        }
      ],
      "stateMutability": "view",
      "type": "function"
    },
    {
      "inputs": [],
      "name": "getWaveTimes",
      "outputs": [
        {
          "internalType": "uint256",
          "name": "",
          "type": "uint256"
        }
      ],
      "stateMutability": "view",
      "type": "function"
    },
    {
      "inputs": [],
      "name": "superWave",
      "outputs": [],
      "stateMutability": "nonpayable",
      "type": "function"
    },
    {
      "inputs": [
        {
          "internalType": "string",
          "name": "_message",
          "type": "string"
        }
      ],
      "name": "wave",
      "outputs": [],
      "stateMutability": "nonpayable",
      "type": "function"
    }
  ],
  "bytecode": "0x60806040526200004f6040518060400160405280601a81526020017f5374617274696e6720736d61727420636f6e74726163742e2e2e0000000000008152506200005560201b620005a61760201c565b620001e9565b620000f5816040516024016200006c919062000162565b6040516020818303038152906040527f41304fac000000000000000000000000000000000000000000000000000000007bffffffffffffffffffffffffffffffffffffffffffffffffffffffff19166020820180517bffffffffffffffffffffffffffffffffffffffffffffffffffffffff8381831617835250505050620000f860201b60201c565b50565b60008151905060006a636f6e736f6c652e6c6f679050602083016000808483855afa5050505050565b60006200012e8262000186565b6200013a818562000191565b93506200014c818560208601620001a2565b6200015781620001d8565b840191505092915050565b600060208201905081810360008301526200017e818462000121565b905092915050565b600081519050919050565b600082825260208201905092915050565b60005b83811015620001c2578082015181840152602081019050620001a5565b83811115620001d2576000848401525b50505050565b6000601f19601f8301169050919050565b61109880620001f96000396000f3fe608060405234801561001057600080fd5b50600436106100575760003560e01c8063449d46c01461005c5780634c33d37214610078578063623e08fa146100825780639a2cdc08146100a0578063bd43a908146100be575b600080fd5b6100766004803603810190610071919061094a565b6100dc565b005b610080610369565b005b61008a6103dc565b6040516100979190610cb9565b60405180910390f35b6100a861040a565b6040516100b59190610cb9565b60405180910390f35b6100c6610455565b6040516100d39190610b90565b60405180910390f35b60016000808282546100ee9190610dcb565b9250508190555060018060008282546101079190610dcb565b9250508190555061014e6040518060400160405280600d81526020017f2573206861732077617665642100000000000000000000000000000000000000815250338361063f565b600260405180606001604052803373ffffffffffffffffffffffffffffffffffffffff16815260200183815260200142815250908060018154018082558091505060019003906000526020600020906003020160009091909190915060008201518160000160006101000a81548173ffffffffffffffffffffffffffffffffffffffff021916908373ffffffffffffffffffffffffffffffffffffffff160217905550602082015181600101908051906020019061020d92919061083f565b506040820151816002015550503373ffffffffffffffffffffffffffffffffffffffff167f5f7e16dc676677766a70e9c5628aa6c54ddb8b6e5188e2ae1e1f17f1ffbea7164283604051610262929190610cd4565b60405180910390a26000655af3107a40009050478111156102b8576040517f08c379a00000000000000000000000000000000000000000000000000000000081526004016102af90610c79565b60405180910390fd5b60003373ffffffffffffffffffffffffffffffffffffffff16826040516102de90610b7b565b60006040518083038185875af1925050503d806000811461031b576040519150601f19603f3d011682016040523d82523d6000602084013e610320565b606091505b5050905080610364576040517f08c379a000000000000000000000000000000000000000000000000000000000815260040161035b90610c99565b60405180910390fd5b505050565b600560008082825461037b9190610dcb565b9250508190555060018060008282546103949190610dcb565b925050819055506103da6040518060400160405280601381526020017f2573206861732073757065722077617665642100000000000000000000000000815250336106de565b565b60006104026040518060600160405280602181526020016110426021913960015461077a565b600154905090565b600061044d6040518060400160405280601781526020017f5765206861766520256420746f74616c2077617665732100000000000000000081525060005461077a565b600054905090565b60606002805480602002602001604051908101604052809291908181526020016000905b8282101561059d57838290600052602060002090600302016040518060600160405290816000820160009054906101000a900473ffffffffffffffffffffffffffffffffffffffff1673ffffffffffffffffffffffffffffffffffffffff1673ffffffffffffffffffffffffffffffffffffffff16815260200160018201805461050290610e9f565b80601f016020809104026020016040519081016040528092919081815260200182805461052e90610e9f565b801561057b5780601f106105505761010080835404028352916020019161057b565b820191906000526020600020905b81548152906001019060200180831161055e57829003601f168201915b5050505050815260200160028201548152505081526020019060010190610479565b50505050905090565b61063c816040516024016105ba9190610bb2565b6040516020818303038152906040527f41304fac000000000000000000000000000000000000000000000000000000007bffffffffffffffffffffffffffffffffffffffffffffffffffffffff19166020820180517bffffffffffffffffffffffffffffffffffffffffffffffffffffffff8381831617835250505050610816565b50565b6106d983838360405160240161065793929190610c04565b6040516020818303038152906040527fe0e9ad4f000000000000000000000000000000000000000000000000000000007bffffffffffffffffffffffffffffffffffffffffffffffffffffffff19166020820180517bffffffffffffffffffffffffffffffffffffffffffffffffffffffff8381831617835250505050610816565b505050565b61077682826040516024016106f4929190610bd4565b6040516020818303038152906040527f319af333000000000000000000000000000000000000000000000000000000007bffffffffffffffffffffffffffffffffffffffffffffffffffffffff19166020820180517bffffffffffffffffffffffffffffffffffffffffffffffffffffffff8381831617835250505050610816565b5050565b6108128282604051602401610790929190610c49565b6040516020818303038152906040527f9710a9d0000000000000000000000000000000000000000000000000000000007bffffffffffffffffffffffffffffffffffffffffffffffffffffffff19166020820180517bffffffffffffffffffffffffffffffffffffffffffffffffffffffff8381831617835250505050610816565b5050565b60008151905060006a636f6e736f6c652e6c6f679050602083016000808483855afa5050505050565b82805461084b90610e9f565b90600052602060002090601f01602090048101928261086d57600085556108b4565b82601f1061088657805160ff19168380011785556108b4565b828001600101855582156108b4579182015b828111156108b3578251825591602001919060010190610898565b5b5090506108c191906108c5565b5090565b5b808211156108de5760008160009055506001016108c6565b5090565b60006108f56108f084610d29565b610d04565b90508281526020810184848401111561090d57600080fd5b610918848285610e5d565b509392505050565b600082601f83011261093157600080fd5b81356109418482602086016108e2565b91505092915050565b60006020828403121561095c57600080fd5b600082013567ffffffffffffffff81111561097657600080fd5b61098284828501610920565b91505092915050565b60006109978383610b0d565b905092915050565b6109a881610e21565b82525050565b6109b781610e21565b82525050565b60006109c882610d6a565b6109d28185610d8d565b9350836020820285016109e485610d5a565b8060005b85811015610a205784840389528151610a01858261098b565b9450610a0c83610d80565b925060208a019950506001810190506109e8565b50829750879550505050505092915050565b6000610a3d82610d75565b610a478185610da9565b9350610a57818560208601610e6c565b610a6081610f8f565b840191505092915050565b6000610a7682610d75565b610a808185610dba565b9350610a90818560208601610e6c565b610a9981610f8f565b840191505092915050565b6000610ab1603483610dba565b9150610abc82610fa0565b604082019050919050565b6000610ad4602783610dba565b9150610adf82610fef565b604082019050919050565b6000610af7600083610d9e565b9150610b028261103e565b600082019050919050565b6000606083016000830151610b25600086018261099f565b5060208301518482036020860152610b3d8282610a32565b9150506040830151610b526040860182610b5d565b508091505092915050565b610b6681610e53565b82525050565b610b7581610e53565b82525050565b6000610b8682610aea565b9150819050919050565b60006020820190508181036000830152610baa81846109bd565b905092915050565b60006020820190508181036000830152610bcc8184610a6b565b905092915050565b60006040820190508181036000830152610bee8185610a6b565b9050610bfd60208301846109ae565b9392505050565b60006060820190508181036000830152610c1e8186610a6b565b9050610c2d60208301856109ae565b8181036040830152610c3f8184610a6b565b9050949350505050565b60006040820190508181036000830152610c638185610a6b565b9050610c726020830184610b6c565b9392505050565b60006020820190508181036000830152610c9281610aa4565b9050919050565b60006020820190508181036000830152610cb281610ac7565b9050919050565b6000602082019050610cce6000830184610b6c565b92915050565b6000604082019050610ce96000830185610b6c565b8181036020830152610cfb8184610a6b565b90509392505050565b6000610d0e610d1f565b9050610d1a8282610ed1565b919050565b6000604051905090565b600067ffffffffffffffff821115610d4457610d43610f60565b5b610d4d82610f8f565b9050602081019050919050565b6000819050602082019050919050565b600081519050919050565b600081519050919050565b6000602082019050919050565b600082825260208201905092915050565b600081905092915050565b600082825260208201905092915050565b600082825260208201905092915050565b6000610dd682610e53565b9150610de183610e53565b9250827fffffffffffffffffffffffffffffffffffffffffffffffffffffffffffffffff03821115610e1657610e15610f02565b5b828201905092915050565b6000610e2c82610e33565b9050919050565b600073ffffffffffffffffffffffffffffffffffffffff82169050919050565b6000819050919050565b82818337600083830152505050565b60005b83811015610e8a578082015181840152602081019050610e6f565b83811115610e99576000848401525b50505050565b60006002820490506001821680610eb757607f821691505b60208210811415610ecb57610eca610f31565b5b50919050565b610eda82610f8f565b810181811067ffffffffffffffff82111715610ef957610ef8610f60565b5b80604052505050565b7f4e487b7100000000000000000000000000000000000000000000000000000000600052601160045260246000fd5b7f4e487b7100000000000000000000000000000000000000000000000000000000600052602260045260246000fd5b7f4e487b7100000000000000000000000000000000000000000000000000000000600052604160045260246000fd5b6000601f19601f8301169050919050565b7f547279696e6720746f207769746864726177206d6f7265206d6f6e657920746860008201527f616e2074686520636f6e7472616374206861732e000000000000000000000000602082015250565b7f4661696c656420746f207769746864726177206d6f6e65792066726f6d20636f60008201527f6e74726163742e00000000000000000000000000000000000000000000000000602082015250565b5056fe5765206861766520256420746f74616c206e756d626572206f6620776176657321a2646970667358221220388de1e00a1bfd0e2d213a9c234cf9a33e0f6fd355e9239945ec6da016cb3b6364736f6c63430008040033",
  "linkReferences": {},
  "deployedLinkReferences": {}
}